:0200000480007A
:100000006F00000B1300000013000000130000003D
:100010001300000013000000130000001300000094
:10002000232E11FE232C51FE232A61FE232871FE6C
:100030002326A1FE2324B1FE2322C1FE2320D1FECC
:10004000232EE1FC232CF1FC232A01FD232811FDA2
:100050002326C1FD2324D1FD2322E1FD2320F1FD30
:10006000130101FCEF00405C8320C1038322810364
:1000700003234103832301030325C1028325810256
:1000800003264102832601020327C1018327810140
:100090000328410183280101032EC100832E810022
:1000A000032F4100832F010013010104730020304E
:1000B00097110000938181F91381810017050000D9
:1000C0001305C57897050000938545786308B5004A
:1000D00023200500130545006FF05FFF17050000A2
:1000E000130585761301C1FF970500009385C5753B
:1000F000630EB50083260500130545002320A100EB
:10010000E7800600032501006FF01FFE1301410088
:10011000371500001305058873104530372500009A
:100120001305858073100530EF0080456F000000D7
:10013000130101FE232E8100130401022326A4FED5
:100140008327C4FE23A007008327C4FE23A407003F
:10015000130000000324C1011301010267800000A5
:10016000130101FE232E8100130401022326A4FEA5
:10017000130000000324C101130101026780000085
:10018000130101FE232E8100130401022326A4FE85
:100190008327C4FE23A207008327C4FE1307F0FFB2
:1001A00023A0E700130000000324C1011301010292
:1001B00067800000130101FE232E81001304010259
:1001C0002326A4FE8327C4FE83A7470093D70701F5
:1001D00093F7F70F138507000324C10113010102F0
:1001E00067800000130101FE232E81001304010229
:1001F0002326A4FE8327C4FE83A7470093D7870145
:10020000138507000324C101130101026780000068
:10021000130101FE232E1100232C8100130401027F
:100220002326A4FE2324B4FE130000000325C4FEED
:10023000EFF05FF893070500E38A07FE8327C4FE0B
:10024000032784FE23A0E700130000008320C101E0
:10025000032481011301010267800000130101FEE4
:10026000232E8100130401022326A4FE2324B4FEBE
:10027000832784FE03A7C7008327C4FE23A4E700C7
:10028000832784FE83A707001387F7FF832784FE55
:1002900083A74700939787003367F700832784FE7F
:1002A00083A78700939707013367F7008327C4FE6E
:1002B00023A6E700130000000324C101130101027B
:1002C00067800000130101FE232E81001304010248
:1002D0002326A4FE8327C4FE1307100023A6E700ED
:1002E0008327C4FE1307000223A8E7008327C4FE68
:1002F0001307000223AAE7008327C4FE13070002A6
:1003000023ACE7008327C4FE23A4070013000000EA
:100310000324C1011301010267800000130101FEE3
:10032000232E8100130401022326A4FE8327C4FE8A
:100330003707001123A0E700130000000324C101C8
:100340001301010267800000130101FE232E8100CA
:10035000130401022326A4FE8327C4FE37070010DE
:1003600023A0E700130000000324C10113010102D0
:1003700067800000130101FE232E1100232C810051
:10038000130401022326A4FE2324B4FE6F000002FE
:10039000832784FE138717002324E4FE83C7070006
:1003A000938507000325C4FEEFF09FE6832784FEB4
:1003B00083C70700E39E07FC130000008320C101F0
:1003C000032481011301010267800000130101FC75
:1003D000232E1102232C8102130401042326A4FCE2
:1003E0002324B4FC232604FE832784FC639207069F
:1003F0008327C4FE138717002326E4FE130704FF98
:10040000B307F700130700032386E7FE6F00C0045D
:10041000032784FC9307A000B377F70213F7F70FC5
:100420008327C4FE938617002326D4FE13070703F1
:100430001377F70F930604FFB387F6002386E7FED2
:10044000032784FC9307A000B357F7022324F4FC8E
:10045000832784FCE39E07FA8327C4FE9387F7FF74
:100460002324F4FE6F00C002832784FE130704FFD9
:10047000B307F70083C7C7FE938507000325C4FCB5
:10048000EFF01FD9832784FE9387F7FF2324F4FE20
:10049000832784FEE3DA07FC130000008320C103F6
:1004A000032481031301010467800000130101FE8E
:1004B000232E1100232C8100130401022326A4FE05
:1004C0002324B4FE2322C4FE832584FE0325C4FE18
:1004D000EFF05FEA832544FE0325C4FEEFF01FEF33
:1004E0009305A000370501F0EFF09FD21300000044
:1004F0008320C101032481011301010267800000F0
:10050000130101FE232E1100232C8100130401028C
:100510002326A4FE370502F0EFF09FC4B70702F0D0
:1005200013850704EFF0DFC0B70702F037C70000FC
:100530001307F73423A0E700B70702F093870704F7
:100540000327C4FE1307F7FF23A2E700B70702F053
:1005500093870704370701001307270023A0E7004C
:1005600013000000B70702F09387070483A78700F2
:10057000B70702F09387070483A747006FF05FFE79
:10058000130101FE232E1100232C8100130401020C
:10059000930780002320F4FE232204FE232404FE7C
:1005A000930750032326F4FE930704FE9385070068
:1005B000370501F0EFF09FCAB70700809385877C6D
:1005C000370501F0EFF01FDBB70700F01307F0006D
:1005D00023A4E7001305803EEFF09FF2B70700F079
:1005E0001307E0F023A2E7001305803EEFF05FF170
:1005F000B70700F01307D0F023A2E7001305803EF1
:10060000EFF01FF0B70700F01307B0F023A2E700E8
:100610001305803EEFF0DFEEB70700F0130780F020
:1006200023A2E7006FF01FFB130101FE232E110030
:10063000232C810013040102B70700F003A7470031
:10064000B71700F083A70700B307F7002326F4FECF
:10065000B70700809385C77C370501F0EFF09FD185
:100660000327C4FE9307000163ECE7128327C4FE4F
:1006700013972700B717008093870780B307F70009
:1006800083A7070067800700B70700809385477D31
:10069000370501F0EFF01FCE6F00C010B70700F074
:1006A0001307100023A2E700B70700809385877D1A
:1006B000370501F0EFF01FCC6F00C00EB70700F058
:1006C0001307100023A2E700B70700809385C77DBA
:1006D000370501F0EFF01FCA6F00C00CB70700F03C
:1006E0001307100023A2E700B70700809385077E59
:1006F000370501F0EFF01FC86F00C00AB707008090
:100700009385477E370501F0EFF0DFC66F00800963
:10071000B70700F01307200023A2E700B707008007
:100720009385877E370501F0EFF0DFC46F00800707
:10073000B70700809385C77E370501F0EFF09FC3B0
:100740006F004006B70700809385077F370501F0EB
:10075000EFF05FC26F000005B70700F0130740001D
:1007600023A2E700B70700809385477F370501F094
:10077000EFF05FC06F000003B70700809385877FAD
:10078000370501F0EFF01FBF6F00C001B707008011
:100790009385C77F370501F0EFF0DFBD6F00800064
:1007A00013000000B70700809385C77C370501F070
:1007B000EFF05FBC130000008320C101032481011E
:0807C000130101026780000033
:1007C80072740A0073746172740A00005331000075
:1007D80053320000533300005334000053360000F6
:1007E8005337000053380000533131005331320081
:1007F8005331340053313600A0070080A007008031
:10080800880600809C060080FC060080BC060080EC
:1008180010070080A007008044070080DC060080E5
:10082800780700803007008058070080A007008004
:0C083800A0070080A00700808C07008053
:0408440000000000B0
:040000058000000077
:00000001FF
