:0200000480007A
:100000006F00000B1300000013000000130000003D
:100010001300000013000000130000001300000094
:10002000232E11FE232C51FE232A61FE232871FE6C
:100030002326A1FE2324B1FE2322C1FE2320D1FECC
:10004000232EE1FC232CF1FC232A01FD232811FDA2
:100050002326C1FD2324D1FD2322E1FD2320F1FD30
:10006000130101FCEF00804D8320C1038322810333
:1000700003234103832301030325C1028325810256
:1000800003264102832601020327C1018327810140
:100090000328410183280101032EC100832E810022
:1000A000032F4100832F010013010104730020304E
:1000B00097110000938181D31381810017050000FF
:1000C0001305C55297050000938545526308B50096
:1000D00023200500130545006FF05FFF17050000A2
:1000E0001305C5501301C1FF970500009385055006
:1000F000630EB50083260500130545002320A100EB
:10010000E7800600032501006FF01FFE1301410088
:10011000371500001305058873104530372500009A
:100120001305858073100530EF0080326F000000EA
:10013000130101FE232E8100130401022326A4FED5
:100140008327C4FE23A007008327C4FE23A407003F
:10015000130000000324C1011301010267800000A5
:10016000130101FE232E8100130401022326A4FEA5
:10017000130000000324C101130101026780000085
:10018000130101FE232E8100130401022326A4FE85
:100190008327C4FE23A207008327C4FE1307F0FFB2
:1001A00023A0E700130000000324C1011301010292
:1001B00067800000130101FE232E81001304010259
:1001C0002326A4FE8327C4FE83A7470093D70701F5
:1001D00093F7F70F138507000324C10113010102F0
:1001E00067800000130101FE232E81001304010229
:1001F0002326A4FE8327C4FE83A7470093D7870145
:10020000138507000324C101130101026780000068
:10021000130101FE232E1100232C8100130401027F
:100220002326A4FE2324B4FE130000000325C4FEED
:10023000EFF05FF893070500E38A07FE8327C4FE0B
:10024000032784FE23A0E700130000008320C101E0
:10025000032481011301010267800000130101FEE4
:10026000232E8100130401022326A4FE2324B4FEBE
:10027000832784FE03A7C7008327C4FE23A4E700C7
:10028000832784FE83A707001387F7FF832784FE55
:1002900083A74700939787003367F700832784FE7F
:1002A00083A78700939707013367F7008327C4FE6E
:1002B00023A6E700130000000324C101130101027B
:1002C00067800000130101FE232E1100232C810002
:1002D000130401022326A4FE2324B4FE6F000002AF
:1002E000832784FE138717002324E4FE83C70700B7
:1002F000938507000325C4FEEFF09FF1832784FE5A
:1003000083C70700E39E07FC130000008320C101A0
:10031000032481011301010267800000130101FC25
:10032000232E1102232C8102130401042326A4FC92
:100330002324B4FC232604FE832784FC639207064F
:100340008327C4FE138717002326E4FE130704FF48
:10035000B307F700130700032386E7FE6F00C0040E
:10036000032784FC9307A000B377F70213F7F70F76
:100370008327C4FE938617002326D4FE13070703A2
:100380001377F70F930604FFB387F6002386E7FE83
:10039000032784FC9307A000B357F7022324F4FC3F
:1003A000832784FCE39E07FA8327C4FE9387F7FF25
:1003B0002324F4FE6F00C002832784FE130704FF8A
:1003C000B307F70083C7C7FE938507000325C4FC66
:1003D000EFF01FE4832784FE9387F7FF2324F4FEC6
:1003E000832784FEE3DA07FC130000008320C103A7
:1003F000032481031301010467800000130101FE3F
:10040000232E1100232C8100130401022326A4FEB5
:100410002324B4FE2322C4FE832584FE0325C4FEC8
:10042000EFF05FEA832544FE0325C4FEEFF01FEFE3
:100430009305A000370501F0EFF09FDD13000000E9
:100440008320C101032481011301010267800000A0
:10045000130101FE232E1100232C8100130401023D
:10046000930780002320F4FE232204FE232404FEAD
:10047000930750032326F4FE930704FE9385070099
:10048000370501F0EFF09FDDB70700809385075D2A
:10049000370501F0EFF01FE3B70702F013850701FE
:1004A000EFF01FCE370502F0EFF09FCBB70702F059
:1004B00013850704EFF0DFC7B70702F037C7000066
:1004C0001307F73423A0E700B70702F09387070468
:1004D0001307703E23A2E700B70702F093870704D3
:1004E000370701001307270023A0E700B70702F032
:1004F000938707011307F00023A0E700B70702F076
:10050000938707011307100023A2E700B70701F044
:100510001307200023A2E700B70701F013078006A6
:1005200023A0E70093070000138507008320C10183
:10053000032481011301010267800000130101FF00
:10054000232611002324810013040101B70702F0C0
:100550009387070183A7070093F7170063880704B1
:1005600013061000B70700809385875D370501F0FB
:10057000EFF0DFE8B70700809385475E370501F0AD
:10058000EFF05FD4B70702F093870701130710005D
:1005900023A0E7006F008001B70701F003A7070061
:1005A000B70701F01377F70F23A0E700B70701F0B3
:1005B00083A7470093F70720E39007FE130000008E
:1005C0008320C10003248100130101016780000022
:1005D00068656C6C0000000068656C6C6F20202002
:0605E000000000000A000B
:040000058000000077
:00000001FF
