:0200000480007A
:100000006F00000B1300000013000000130000003D
:100010001300000013000000130000001300000094
:10002000232E11FE232C51FE232A61FE232871FE6C
:100030002326A1FE2324B1FE2322C1FE2320D1FECC
:10004000232EE1FC232CF1FC232A01FD232811FDA2
:100050002326C1FD2324D1FD2322E1FD2320F1FD30
:10006000130101FCEF0000638320C103832281039D
:1000700003234103832301030325C1028325810256
:1000800003264102832601020327C1018327810140
:100090000328410183280101032EC100832E810022
:1000A000032F4100832F010013010104730020304E
:1000B00097110000938101E11381010017050000F1
:1000C00013054560970500009385C55F6308B5007B
:1000D00023200500130545006FF05FFF17050000A2
:1000E0001305055E1301C1FF970500009385455D6B
:1000F000630EB50083260500130545002320A100EB
:10010000E7800600032501006FF01FFE1301410088
:10011000371500001305058873104530372500009A
:100120001305858073100530EF0080456F000000D7
:10013000130101FE232E8100130401022326A4FED5
:100140008327C4FE23A007008327C4FE23A407003F
:10015000130000000324C1011301010267800000A5
:10016000130101FE232E8100130401022326A4FEA5
:10017000130000000324C101130101026780000085
:10018000130101FE232E8100130401022326A4FE85
:100190008327C4FE23A207008327C4FE1307F0FFB2
:1001A00023A0E700130000000324C1011301010292
:1001B00067800000130101FE232E81001304010259
:1001C0002326A4FE8327C4FE83A7470093D70701F5
:1001D00093F7F70F138507000324C10113010102F0
:1001E00067800000130101FE232E81001304010229
:1001F0002326A4FE8327C4FE83A7470093D7870145
:10020000138507000324C101130101026780000068
:10021000130101FE232E1100232C8100130401027F
:100220002326A4FE2324B4FE130000000325C4FEED
:10023000EFF05FF893070500E38A07FE8327C4FE0B
:10024000032784FE23A0E700130000008320C101E0
:10025000032481011301010267800000130101FEE4
:10026000232E8100130401022326A4FE2324B4FEBE
:10027000832784FE03A7C7008327C4FE23A4E700C7
:10028000832784FE83A707001387F7FF832784FE55
:1002900083A74700939787003367F700832784FE7F
:1002A00083A78700939707013367F7008327C4FE6E
:1002B00023A6E700130000000324C101130101027B
:1002C00067800000130101FE232E81001304010248
:1002D0002326A4FE8327C4FE1307100023A6E700ED
:1002E0008327C4FE1307000223A8E7008327C4FE68
:1002F0001307000223AAE7008327C4FE13070002A6
:1003000023ACE7008327C4FE23A4070013000000EA
:100310000324C1011301010267800000130101FEE3
:10032000232E8100130401022326A4FE8327C4FE8A
:100330003707001123A0E700130000000324C101C8
:100340001301010267800000130101FE232E8100CA
:10035000130401022326A4FE8327C4FE37070010DE
:1003600023A0E700130000000324C10113010102D0
:1003700067800000130101FE232E1100232C810051
:10038000130401022326A4FE2324B4FE6F000002FE
:10039000832784FE138717002324E4FE83C7070006
:1003A000938507000325C4FEEFF09FE6832784FEB4
:1003B00083C70700E39E07FC130000008320C101F0
:1003C000032481011301010267800000130101FC75
:1003D000232E1102232C8102130401042326A4FCE2
:1003E0002324B4FC232604FE832784FC639207069F
:1003F0008327C4FE138717002326E4FE130704FF98
:10040000B307F700130700032386E7FE6F00C0045D
:10041000032784FC9307A000B377F70213F7F70FC5
:100420008327C4FE938617002326D4FE13070703F1
:100430001377F70F930604FFB387F6002386E7FED2
:10044000032784FC9307A000B357F7022324F4FC8E
:10045000832784FCE39E07FA8327C4FE9387F7FF74
:100460002324F4FE6F00C002832784FE130704FFD9
:10047000B307F70083C7C7FE938507000325C4FCB5
:10048000EFF01FD9832784FE9387F7FF2324F4FE20
:10049000832784FEE3DA07FC130000008320C103F6
:1004A000032481031301010467800000130101FE8E
:1004B000232E1100232C8100130401022326A4FE05
:1004C0002324B4FE2322C4FE832584FE0325C4FE18
:1004D000EFF05FEA832544FE0325C4FEEFF01FEF33
:1004E0009305A000370501F0EFF09FD21300000044
:1004F0008320C101032481011301010267800000F0
:10050000130101FE232E1100232C8100130401028C
:100510002326A4FE370502F0EFF09FC4B70702F0D0
:1005200013850704EFF0DFC0B70702F037C70000FC
:100530001307F73423A0E700B70702F093870704F7
:100540000327C4FE1307F7FF23A2E700B70702F053
:1005500093870704370701001307270023A0E7004C
:1005600013000000B70702F09387070483A78700F2
:10057000B70702F09387070483A747006FF05FFE79
:10058000130101FB23261104232481041304010514
:1005900093078000232CF4FC232E04FC232004FE6C
:1005A000930750032322F4FE930784FD93850700ED
:1005B000370501F0EFF09FCA370503F0EFF09FD049
:1005C000370503F0EFF09FD5B70703F01307F009E5
:1005D00023A0E700232604FE6F008004B70703F082
:1005E0003707000123A0E7006F000002B70703F000
:1005F00003A707008327C4FE93972700930604FFF1
:10060000B387F60023A0E7FCB70703F083A7070032
:10061000E3DE07FC8327C4FE938717002326F4FE3E
:100620000327C4FE93072000E3DAE7FA370503F057
:10063000EFF09FD1232404FE6F008003832784FE04
:1006400093972700130704FFB307F70083A707FC5E
:1006500013860700B70700809385076B370501F005
:10066000EFF0DFE4832784FE938717002324F4FE52
:10067000032784FE93079000E3D2E7FC9307000072
:10068000138507008320C10403248104130101059D
:1006900067800000130101FF23268100130401017C
:1006A000130000000324C100130101016780000052
:0A06B0004A454445432049443A00FE
:0406BC00000000003A
:040000058000000077
:00000001FF
